:100000000C94E5030C940D040C940D040C940D0455
:100010000C940D040C940D040C940D040C940D041C
:100020000C940D040C940D040C940D040C940D040C
:100030000C940D040C946A0C0C940D040C940D0497
:100040000C94F20A0C940D040C940D040C940D0401
:100050000C940D040C940D040C940D040C940D04DC
:100060000C943C0B0C940D040608200000000000CA
:100070000000004040404040004000505050000010
:10008000000000000050F850F850002070A07028C8
:1000900070200000C8D0205898000020508040A850
:1000A00090680040404000000000001020404040A8
:1000B00020100040201010102040001038100000C8
:1000C000000000002020F8202000000000000000B8
:1000D000101000000000F800000000000000000008
:1000E00010000000081020408000007088A8A88838
:1000F00070000020602020207000007088102040D8
:10010000F80000F810201088700000909090F8100F
:10011000100000F880F008887000007080F0888877
:10012000700000F8081020408000007088708888F7
:1001300070000070888878087000000000200000BF
:100140002000000000200020204000001860806097
:10015000180000000078007800000000C03008306F
:10016000C000006090202000200000708898A890B7
:10017000887000205088F888880000F088F088880F
:10018000F000007088808088700000F0888888887F
:10019000F00000F880F88080F80000F880F080809F
:1001A00080000070888098887000008888F88888AF
:1001B000880000702020202070000038101010905F
:1001C0006000008890E0A09088000080808080809F
:1001D000F8000088D8A8A8888800008888C8A8984F
:1001E0008800007088888888700000F088F080801F
:1001F000800000708888A890680000F088F0A090C7
:100200008800007880700808F00000F82020202086
:100210002000008888888888700000888888885036
:100220002000008888A8A8A8500000885020508886
:100230008800008888502020200000F80810204006
:10024000F80000E080808080E00000008040201006
:100250000800003808080808380000205000000096
:10026000000000000000000000F8008040000000D6
:1002700000000000601070906000008080E09090AE
:10028000E0000000007080807000001010709090FE
:10029000700000006090F0807000003040E040404E
:1002A00040000000609070101060008080E090902E
:1002B000900000200020202070000010003010105E
:1002C0001060008090A0C0A090000060202020203E
:1002D000700000000050A8A8A800000000F0888866
:1002E000880000000060909060000000006090F0C6
:1002F00080800000006090F01010000000B04840C6
:1003000040000000304020106000004040E04040CD
:10031000400000000090909060000000008888502D
:10032000200000000088A8A850000000885020503D
:1003300088000000009090604080000000F02040A5
:10034000F00000204040804040200020202020205D
:10035000202000201010081010200040A8100000DD
:10036000000000000000000000000008080000007D
:10037000000000000000003E41554155493E003E4E
:100380007F6B7F6B773E0022777F7F3E1C080008E3
:100390001C3E7F3E1C0800081C2A7F2A081C0008FF
:1003A0001C3E7F3E081C00001C3E3E3E1C00FFFF22
:1003B000E3C1C1C1E3FF00001C2222221C00FFFF99
:1003C000E3DDDDDDE3FF000F0305394848300008B9
:1003D0003E081C22221C0018141010307060000F00
:1003E00019111337766000082A1C771C2A08006050
:1003F000787E7F7E786000030F3F7F3F0F03000809
:100400001C2A082A1C080066666666006666003FAD
:1004100065653D050505000C324824124C3000008E
:100420000000007F7F7F00081C2A082A1C3E00086D
:100430001C3E7F1C1C1C001C1C1C7F3E1C08000852
:100440000C7E7F7E0C080008183F7F3F18080000D4
:10045000007070707F7F000014227F22140000085B
:100460001C1C3E3E7F7F007F7F3E3E1C1C08000020
:1004700000000000000000183C3C1818001800366E
:100480003614000000000036367F367F363600080E
:100490001E201C023C080060660C18306606003CFA
:1004A000663C2865663F00181818300000000060A0
:1004B00030181818306000060C1818180C060000C8
:1004C000361C7F1C3600000008083E0808000000AB
:1004D000000030303060000000003C0000000000F0
:1004E0000000000060600000060C18306000003C56
:1004F000666E7666663C001818381818187E003C40
:1005000066060C30607E003C66061C06663C000CED
:100510001C2C4C7E0C0C007E607C0606663C003C6D
:1005200066607C66663C007E660C0C181818003C01
:1005300066663C66663C003C66663E06663C0000BD
:1005400018180018180000001818001818300006B5
:100550000C1830180C060000003C003C0000006045
:1005600030180C183060003C66061C180018003863
:10057000445C58423C00003C66667E666666007CD1
:1005800066667C66667C003C66606060663C007CFB
:1005900066666666667C007E60607C60607E007E6B
:1005A00060607C606060003C6660606E663C006617
:1005B00066667E666666003C18181818183C001EB1
:1005C0000C0C0C6C6C3800666C7870786C66006093
:1005D00060606060607E0063777F6B63636300636D
:1005E000737B6F676363003C66666666663C007C8F
:1005F0006666667C6060003C6666666E3C06007CF3
:1006000066667C786C66003C66603C06663C007EF4
:100610005A1818181818006666666666663E006600
:10062000666666663C18006363636B7F776300638E
:1006300063361C366363006666663C181818007ED5
:10064000060C1830607E001E18181818181E0000BE
:100650006030180C06000078181818181878000870
:10066000142241000000000000000000007F000C88
:100670000C06000000000000003C063E663E0060E4
:1006800060607C66667C0000003C6660663C00063C
:1006900006063E66663E0000003C667E603C001C2E
:1006A0003630307C303000003E66663E063C0060EE
:1006B00060607C666666000018001818183C000C24
:1006C000000C0C6C6C38006060666C786C6600180E
:1006D00018181818181800000063777F6B6B00005B
:1006E000007C7E6666660000003C6666663C000034
:1006F0007C66667C606000003C6C6C3C0D0F00000A
:10070000007C666660600000003E403C027C0000A9
:1007100018187E181818000000666666663E00000D
:10072000000066663C18000000636B6B6B3E0000C7
:1007300000663C183C6600000066663E063C000011
:10074000003C0C18303C000E18183018180E001819
:10075000181800181818007018180C1818700000D5
:10076000003A6C00000000081C366341417F000025
:1007700000002300260029000000000800020100FC
:10078000000304070000000000000000000000005B
:10079000250028002B0000000000240027002A006C
:1007A0000404040404040404020202020202030317
:1007B000030303030102040810204080010204081F
:1007C00010200102040810204E1511241FBECFEF87
:1007D000D8E0DEBFCDBF11E0A0E0B1E0E6E7FDE28A
:1007E00002C005900D92A832B107D9F722E0A8E225
:1007F000B1E001C01D92AF32B207E1F713E0C5EEE0
:10080000D3E004C02197FE010E948D15C43ED1079C
:10081000C9F70E9491120C94B9160C9400003FB7CE
:10082000F8948091920190919301A0919401B091DC
:10083000950126B5A89B05C02F3F19F00196A11D73
:10084000B11D3FBFBA2FA92F982F8827820F911D66
:10085000A11DB11DBC01CD0142E0660F771F881FAD
:10086000991F4A95D1F708958F929F92AF92BF92A8
:10087000CF92DF92EF92FF926B017C010E940F04F6
:100880004B015C01C114D104E104F104F1F00E94B8
:100890000F04DC01CB0188199909AA09BB09883E1C
:1008A0009340A105B10570F321E0C21AD108E10817
:1008B000F10888EE880E83E0981EA11CB11CC114BB
:1008C000D104E104F10419F7DDCFFF90EF90DF9040
:1008D000CF90BF90AF909F908F9008952FB7F894CE
:1008E00060918E0170918F018091900190919101A2
:1008F0002FBF08950F93CF93DF93EAE1F2E0A7852E
:10090000B089C0912C01D0912D018285AC0FBD1F03
:100910000BB10F7703C000FA07F90BB90D90000077
:1009200007FA07F90BB900000000000006FA07F902
:100930000BB900000000000005FA07F90BB9000030
:100940000000000004FA07F90BB9000000000000E5
:1009500003FA07F90BB900000000000002FA07F9DA
:100960000BB900000000000001FA07F90BB98A95E5
:1009700091F60000000000FA07F90BB90BB10F77F0
:1009800007FB07F90BB9DF91CF910F9108950F93F2
:10099000CF93DF93EAE1F2E0A785B089C0912C0103
:1009A000D0912D018285AC0FBD1F0BB10F7703C015
:1009B00000FA07F90BB90D9007FA07F90BB9000017
:1009C000000006FA07F90BB90000000005FA07F964
:1009D0000BB90000000004FA07F90BB90000000091
:1009E00003FA07F90BB90000000002FA07F90BB986
:1009F00000008A9501FA07F90BB9D1F6000000FA58
:100A000007F90BB90BB10F7707FB07F90BB9DF91AA
:100A1000CF910F9108950F93CF93DF93EAE1F2E026
:100A2000A785B089C0912C01D0912D018285AC0F92
:100A3000BD1F02C0000C0BB80D9000000BB80000E9
:100A40000000000C0BB800000000000C0BB8000008
:100A50000000000C0BB800000000000C0BB80000F8
:100A60000000000C0BB80000000C8A950BB811F7C1
:100A70000000000C0BB80000000000005F98DF9140
:100A8000CF910F9108950F93CF93DF93EAE1F2E0B6
:100A9000A785B089C0912C01D0912D018285AC0F22
:100AA000BD1F8E3191F08D3151F08C3149F08B3179
:100AB00041F08A3139F0893131F0883129F01CC098
:100AC00032C048C05EC074C08AC00D900BB8000030
:100AD000000C0BB80000000C0BB80000000C0BB8A9
:100AE0000000000C0BB80000000C0BB80000000C5C
:100AF0000BB80000000C0BB80D900BB80000000CF8
:100B00000BB80000000C0BB80000000C0BB8000084
:100B1000000C0BB80000000C0BB80000000C0BB868
:100B20000000000C0BB80D900BB80000000C0BB8C7
:100B30000000000C0BB80000000C0BB80000000C0B
:100B40000BB80000000C0BB80000000C0BB8000044
:100B5000000C0BB80D900BB80000000C0BB8000097
:100B6000000C0BB80000000C0BB80000000C0BB818
:100B70000000000C0BB80000000C0BB80000000CCB
:100B80000BB80D900BB80000000C0BB80000000C67
:100B90000BB80000000C0BB80000000C0BB80000F4
:100BA000000C0BB80000000C0BB80000000C0BB8D8
:100BB0000D900BB80000000C0BB80000000C0BB837
:100BC0000000000C0BB80000000C0BB80000000C7B
:100BD0000BB80000000C0BB80000000C0BB80D9017
:100BE0000BB80000000C0BB80000000C0BB80000A4
:100BF000000C0BB80000000C0BB80000000C0BB888
:100C00000000000C0BB80000000C0BB80D900BB8E6
:100C10000000000C0BB80000000C0BB80000000C2A
:100C20000BB80000000C0BB80000000C0BB8000063
:100C3000000C0BB80000000C0BB80D900BB80000B6
:100C4000000C0BB80000000C0BB80000000C0BB837
:100C50000000000C0BB80000000C0BB80000000CEA
:100C60000BB80000000C0BB80D900BB80000000C86
:100C70000BB80000000C0BB80000000C0BB8000013
:100C8000000C0BB80000000C0BB80000000C0BB8F7
:100C90000000000C0BB80D900BB80000000C0BB856
:100CA0000000000C0BB80000000C0BB80000000C9A
:100CB0000BB80000000C0BB80000000C0BB80000D3
:100CC000000C0BB80D900BB80000000C0BB8000026
:100CD000000C0BB80000000C0BB80000000C0BB8A7
:100CE0000000000C0BB80000000C0BB80000000C5A
:100CF0000BB80D900BB80000000C0BB80000000CF6
:100D00000BB80000000C0BB80000000C0BB8000082
:100D1000000C0BB80000000C0BB80000000C0BB866
:100D20000D900BB80000000C0BB80000000C0BB8C5
:100D30000000000C0BB80000000C0BB80000000C09
:100D40000BB80000000C0BB80000000C0BB80D90A5
:100D50000BB80000000C0BB80000000C0BB8000032
:100D6000000C0BB80000000C0BB80000000C0BB816
:100D70000000000C0BB80000000C0BB80D900BB875
:100D80000000000C0BB80000000C0BB80000000CB9
:100D90000BB80000000C0BB80000000C0BB80000F2
:100DA000000C0BB80000000C0BB80D900BB8000045
:100DB000000C0BB80000000C0BB80000000C0BB8C6
:100DC0000000000C0BB80000000C0BB80000000C79
:100DD0000BB80000000C0BB80D900BB80000000C15
:100DE0000BB80000000C0BB80000000C0BB80000A2
:100DF000000C0BB80000000C0BB80000000C0BB886
:100E00000000000C0BB80D900BB80000000C0BB8E4
:100E10000000000C0BB80000000C0BB80000000C28
:100E20000BB80000000C0BB80000000C0BB8000061
:100E3000000C0BB80D900BB80000000C0BB80000B4
:100E4000000C0BB80000000C0BB80000000C0BB835
:100E50000000000C0BB80000000C0BB80000000CE8
:100E60000BB80D900BB80000000C0BB80000000C84
:100E70000BB80000000C0BB80000000C0BB8000011
:100E8000000C0BB80000000C0BB80000000C0BB8F5
:100E90000D900BB80000000C0BB80000000C0BB854
:100EA0000000000C0BB80000000C0BB80000000C98
:100EB0000BB80000000C0BB80000000C0BB80D9034
:100EC0000BB80000000C0BB80000000C0BB80000C1
:100ED000000C0BB80000000C0BB80000000C0BB8A5
:100EE0000000000C0BB80000000C0BB80D900BB804
:100EF0000000000C0BB80000000C0BB80000000C48
:100F00000BB80000000C0BB80000000C0BB8000080
:100F1000000C0BB80000000C0BB80D900BB80000D3
:100F2000000C0BB80000000C0BB80000000C0BB854
:100F30000000000C0BB80000000C0BB80000000C07
:100F40000BB80000000C0BB80D900BB80000000CA3
:100F50000BB80000000C0BB80000000C0BB8000030
:100F6000000C0BB80000000C0BB80000000C0BB814
:100F70000000000C0BB80D900BB80000000C0BB873
:100F80000000000C0BB80000000C0BB80000000CB7
:100F90000BB80000000C0BB80000000C0BB80000F0
:100FA000000C0BB80D900BB80000000C0BB8000043
:100FB000000C0BB80000000C0BB80000000C0BB8C4
:100FC0000000000C0BB80000000C0BB80000000C77
:100FD0000BB80D900BB80000000C0BB80000000C13
:100FE0000BB80000000C0BB80000000C0BB80000A0
:100FF000000C0BB80000000C0BB80000000C0BB884
:101000000D900BB80000000C0BB80000000C0BB8E2
:101010000000000C0BB80000000C0BB80000000C26
:101020000BB80000000C0BB80000000C0BB800005F
:1010300000005F98DF91CF910F91089520911A02DF
:1010400030911B02809121029091220228173907CA
:101050000CF44EC08CEA93E0909389008093880052
:1010600010921B0210921A0280911C0290911D0294
:10107000A0911E02B0911F020196A11DB11D809387
:101080001C0290931D02A0931E02B0931F02809138
:10109000280190912901A0912A01B0912B01892B5F
:1010A0008A2B8B2B09F18091280190912901A09125
:1010B0002A01B0912B01181619061A061B0684F591
:1010C0008091280190912901A0912A01B0912B01D2
:1010D0000197A109B1098093280190932901A09358
:1010E0002A01B0932B011CC01092B1002B9818C09C
:1010F00020911A0230911B0280912802082E000CC8
:10110000990B2817390761F48AE490E090938900DD
:101110008093880084E899E0909372018093710134
:1011200080911A0290911B02019690931B0280936A
:101130001A020895CF92DF92EF92FF920F931F93BE
:10114000CF93DF936C017A018B01C0E0D0E0CE1524
:10115000DF0581F0D8016D918D01D601ED91FC91F3
:101160000190F081E02DC6010995892B11F021969F
:10117000EECF7E01C701DF91CF911F910F91FF90BC
:10118000EF90DF90CF90089585ED8093BC00809123
:10119000BC0084FDFCCF1092E301089540914E0104
:1011A000262F30E0240F311D21323105DCF420914F
:1011B000E3012430C9F4FC0180E090E0861758F484
:1011C00030914E012191DC01A25DBE4FA30FB11DF4
:1011D0002C930196F3CF80914E01680F60934E01DE
:1011E00080E0089581E0089582E0089508950895CB
:1011F0000895E0919C0180919B01E81730F4F0E0A4
:10120000E356FE4F808190E008958FEF9FEF0895A1
:1012100090919C0180919B01981750F4E92FF0E088
:10122000E356FE4F208130E09F5F90939C0102C007
:101230002FEF3FEFC901089580919B0190E020912D
:101240009C01821B91090895CF92DF92EF92FF9249
:101250000F931F93CF93DF937C01CB018A012091E1
:10126000F001222389F0EB016B01C40ED51ECC15D1
:10127000DD0569F06991D701ED91FC910190F08154
:10128000E02DC7010995F3CF642F0E94CE08C80155
:10129000DF91CF911F910F91FF90EF90DF90CF9052
:1012A0000895CF93DF931F92CDB7DEB76983209166
:1012B000F0012223D1F020911302203240F021E0EE
:1012C00030E0FC013383228380E090E015C0809100
:1012D000F101E82FF0E0EE50FE4F998190838F5F8F
:1012E0008093F1018093130205C061E0CE01019665
:1012F0000E94CE0881E090E00F90DF91CF91089599
:10130000089580E090E0089520911A0230911B0228
:101310008091200290E02817390759F410922D018E
:1013200010922C01809126028093270284EB99E091
:101330000DC020911A0230911B02809121029091E0
:1013400022022817390731F48EE198E09093720158
:101350008093710180911A0290911B0201969093E3
:101360001B0280931A020895309184002091250277
:101370002A50231B2350F0F72D5F19F02A9511F006
:1013800001C00000E0917301F09174010995909102
:1013900027028091260291110FC08093270290911D
:1013A000240220912C0130912D01290F311D309301
:1013B0002D0120932C0103C091509093270240915E
:1013C0001A0250911B024F5F5F4F082E000C990BC1
:1013D000019660912302689F9001699F300D11244E
:1013E00080912002B901680F711D4617570731F42B
:1013F00084E899E0909372018093710180911A02C0
:1014000090911B02019690931B0280931A020895FB
:1014100008950E94B4168230910509F450C02CF44E
:10142000009759F0019721F108958330910509F44F
:1014300065C0049709F485C0089561E080E00E94CA
:10144000621061E081E00E94621060E082E00E9430
:10145000621060E084E00E94621060E086E00E941A
:10146000621060E088E00E94621060E083E01AC0D1
:1014700061E082E00E94621060E080E00E94621001
:1014800060E084E00E94621060E086E00E946210EA
:1014900060E088E00E94621061E083E00E946210D8
:1014A00060E081E00E94621060E085E00E946210CE
:1014B00060E087E00E94621060E089E068C061E05F
:1014C00084E00E94621060E080E00E94621060E0B0
:1014D00082E00E94621060E086E00E94621060E09C
:1014E00088E00E94621061E085E00E94621060E086
:1014F00081E00E94621060E083E0D8CF61E086E086
:101500000E94621060E080E00E94621060E082E071
:101510000E94621060E084E00E94621060E088E057
:101520000E94621061E087E00E94621060E081E04A
:101530000E94621060E083E00E94621060E085E03B
:10154000B9CF61E088E00E94621060E080E00E9414
:10155000621060E082E00E94621060E084E00E941D
:10156000621060E086E00E94621061E089E00E9403
:10157000621060E081E00E94621060E083E00E94FF
:10158000621060E085E00E94621060E087E00C94E9
:101590006210833081F028F4813099F08230A1F01C
:1015A00008958730A9F08830B9F08430D1F4809163
:1015B00080008F7D03C0809180008F7780938000B2
:1015C000089584B58F7702C084B58F7D84BD08955A
:1015D0008091B0008F7703C08091B0008F7D8093A1
:1015E000B00008951F920F920FB60F9211242F93FF
:1015F0003F938F939F93AF93BF9380918E01909170
:101600008F01A0919001B091910130918D0123E063
:10161000230F2D3720F40196A11DB11D05C026E82A
:10162000230F0296A11DB11D20938D0180938E0181
:1016300090938F01A0939001B093910180919201BA
:1016400090919301A0919401B09195010196A11DF3
:10165000B11D8093920190939301A0939401B09354
:101660009501BF91AF919F918F913F912F910F90D5
:101670000FBE0F901F9018951F920F920FB60F92EA
:1016800011242F933F934F935F936F937F938F9387
:101690009F93AF93BF93EF93FF938091B900887F9F
:1016A000803609F49CC068F5883209F45BC090F478
:1016B000803109F454C038F4882309F4F6C0883026
:1016C00009F44DC0F6C0883109F44CC0803209F4E9
:1016D0005DC0EFC0803409F468C048F4803309F479
:1016E00055C0883309F0E5C08093E101D8C080354A
:1016F00009F44FC0883509F45DC0883409F0D9C0B9
:10170000D6C0883909F4C7C0A8F4883709F467C07F
:1017100038F4883609F463C0803709F460C0C9C062
:10172000883809F4B8C0803909F45FC0803809F0FE
:10173000C0C05BC0803B09F486C038F4803A09F42D
:1017400066C0883A09F47FC0B4C0803C09F4A7C0E1
:10175000883C09F4A4C0883B09F48AC0AAC08091DF
:10176000BE0110C09091E0018091DF01981770F5E3
:10177000E091E00181E08E0F8093E001F0E0E15420
:10178000FE4F80818093BB0085EC86C08093E10191
:101790008EC0E091E00181E08E0F8093E0018091A6
:1017A000BB00F0E0E154FE4F80839091E001809116
:1017B000DF016EC0E091E00181E08E0F8093E001D7
:1017C0008091BB00F0E0E154FE4F80838091E20104
:1017D00081116DC081E08093BD0184EA61C083E026
:1017E0008093E30110927001CFCF8091700180321D
:1017F00008F051C0E091700181E08E0F809370017C
:101800008091BB00F0E0E05BFE4F8083BDCF85ECB4
:101810008093BC001092E30180917001803230F41B
:10182000E0917001F0E0E05BFE4F1082609170018A
:1018300070E0E0919601F091970180E591E00995C3
:101840001092700136C084E08093E30110924F0142
:1018500010924E01E0919801F091990109958091C3
:101860004E01811105C081E080934E0110922E013E
:10187000E0914F0181E08E0F80934F01F0E0E25D37
:10188000FE4F80818093BB0090914F0180914E016B
:10189000981708F479CF85E88093BC000AC085ECDE
:1018A0008093BC001092E30104C01092E1010E94F9
:1018B000C408FF91EF91BF91AF919F918F917F915C
:1018C0006F915F914F913F912F910F900FBE0F90AD
:1018D0001F9018951F920F920FB60F9211242F93FD
:1018E0003F934F935F936F937F938F939F93AF93A8
:1018F000BF93EF93FF93E0917101F091720109950D
:10190000FF91EF91BF91AF919F918F917F916F91D7
:101910005F914F913F912F910F900FBE0F901F90AD
:101920001895AAE1B2E01A96EC911A97982F96951D
:10193000969596956E9FF0011124BF01690F711D58
:101940001F96ED91FC915097E60FF71F282F2770F7
:1019500080E890E002C0959587952A95E2F79081FE
:10196000892B808308952091170230912302E09102
:101970001802F091190231966491422F50E0832FA2
:1019800090E0861B910948175907D4F0E4918091A3
:10199000290290912A0220912402DC01E29FA00DED
:1019A000B11D1124AC01329F400D511D11249A012B
:1019B000FC012A173B0740F08C9181931D92F9CFCF
:1019C000E491E20FE093170208952F923F924F9215
:1019D0005F926F927F928F929F92AF92BF92CF92BF
:1019E000DF92EF92FF920F931F93CF93DF93CDB7C8
:1019F000DEB727970FB6F894DEBF0FBECDBFA0911C
:101A00001802B0911902FD013296E4914E1B9D011E
:101A10002F5F3F4FF9017491FD019491F9012491D9
:101A2000429FA00111249A012D5F3F4F082F07709C
:101A3000098318E0101B1D83911106C0FD01E20F00
:101A4000F31F94912F5F3F4F711106C0FD01E20F0C
:101A5000F31F74912F5F3F4F492F4770E92FE69591
:101A6000E695E695442311F0EF5F01C048E08695C6
:101A700086958695A82EB12CBC82AB82B9806B2C42
:101A8000712C7301E40EF11C8FEF90E06C010E2CB1
:101A900002C0D594C7940A94E2F71D81012F10E08B
:101AA0001A8309830D8002C0880F991F0A94E2F7F8
:101AB000E13011F49C2C01C0912C982A9D82A70141
:101AC000485051098FEF90E002C0959587954A954F
:101AD000E2F7D82E00E010E0862E912C2E2E312C2D
:101AE00041E0241A3108071708F09EC040912402F3
:101AF000C401800F911F489FF001499FF00D1124F0
:101B0000AB80BC80EA0DFB1DFF83EE83E0911402E5
:101B1000F09115024E815F81E40FF51F60818D8188
:101B200086238083A9014F5F5F4FFD01E20FF31F02
:101B30008491E0911402F0911502AE80BF80EA0D0D
:101B4000FB1DA82EB12C062C02C0B594A7940A94B4
:101B5000E2F79081A92AA0822101440E551EAE8091
:101B6000BF80A21AB30A9501240F351F3F832E832D
:101B7000209114023091150290E04415550528F586
:101B8000EE81FF81E20FF31F6081098001C0880FA1
:101B90000A94EAF78083FD01E40FF51F84912091F8
:101BA000140230911502EE81FF81E20FF31F282FFE
:101BB00030E0062C02C0359527950A94E2F7908113
:101BC000292B20834F5F5F4FCECFF8E0EF16F10453
:101BD00050F4EE81FF813197E20FF31F6C212081D9
:101BE000622B60830BC068E0E616F10439F0EE81E9
:101BF000FF81E20FF31F20812D2120832091140209
:101C000030911502AE80BF802A0D3B1D098002C0B5
:101C1000880F991F0A94E2F7F9019081892B80833C
:101C20000F5F1F4F9A015FCF27960FB6F894DEBF64
:101C30000FBECDBFDF91CF911F910F91FF90EF901D
:101C4000DF90CF90BF90AF909F908F907F906F90DC
:101C50005F904F903F902F900895CF93DF93282F60
:101C600030E0F901E858F84F8491F901EC54F84F4D
:101C7000D491F901E056F84FC491CC2389F0811139
:101C80000E94C90AEC2FF0E0EE0FFF1FE457F84F57
:101C9000A591B4918FB7F894EC91ED2BEC938FBF95
:101CA000DF91CF91089590912402E82FF0E058E061
:101CB000959F90011124E217F30794F520912302D8
:101CC000621770F5413011F40C94910C282F269571
:101CD00026952695969FB0011124E0912902F09156
:101CE0002A028770620F711DE60FF71F41110CC0A9
:101CF0002FE73FEFA90102C0559547958A95E2F776
:101D0000CA01908189230BC020E830E0A90102C0FC
:101D1000559547958A95E2F7CA0190818927808376
:101D20000895CF938A30D9F0A8F4882309F44DC0E0
:101D30008830E9F4E0911802F0911902E491809161
:101D400016028E1B8093160240E260911702CF911B
:101D50000C94E50C8D3041F08E30B9F108C0109232
:101D60001602CF910C94B30C109216022EC0C82FFD
:101D70008091160220912402E0911802F09119023C
:101D8000E491482F50E098E0299F900111242E1BE8
:101D900031094217530754F0109216020E94B30CF7
:101DA0004C2F609117028091160203C04C2F609156
:101DB00017020E94E50CE0911802F0911902E491DB
:101DC00080911602E80FE0931602CF9108958F924A
:101DD0009F92AF92BF92CF92DF92EF92FF920F93BA
:101DE0001F93CF93DF93CDB7DEB7A0970FB6F894CC
:101DF000DEBF0FBECDBF6115710581059105A9F448
:101E000080E3A0960FB6F894DEBF0FBECDBFDF9182
:101E1000CF911F910F91FF90EF90DF90CF90BF90E7
:101E2000AF909F908F900C94910E8E010F5F1F4F7B
:101E3000C12CD12C7601842E912CA12CB12C2FEF0A
:101E4000C21AD20AE20AF20AA50194010E946B1595
:101E5000F80161938F01B901CA016115710581050E
:101E6000910569F7F1E0CF1AD108E108F108FE0108
:101E7000EC0DFD1D81818A3010F4805D01C0895C0C
:101E80000E94910EC114D104E104F10459F7A09607
:101E90000FB6F894DEBF0FBECDBFDF91CF911F917B
:101EA0000F91FF90EF90DF90CF90BF90AF909F90F9
:101EB0008F900895CF93DF93EC018991882319F0D7
:101EC0000E94910EFACFDF91CF910895282F309183
:101ED0001302313208F04AC08091E3018111FCCF36
:101EE0009091120242E04093E3012093E2012FEF30
:101EF0002093E1011092E0013093DF01E2EFF1E085
:101F0000AFEBB1E020E0321721F041914D932F5F0C
:101F1000FACF1092BE012091BE01990F922B90939F
:101F2000BE019091BD01913061F41092BD0190917C
:101F3000BE019093BB009091BC0093FDF8CF95EC4F
:101F400001C095EE9093BC009091E3019230E1F3D3
:101F50009091E1019F3F79F08091E101803241F061
:101F60008091E101803331F084E005C081E003C05D
:101F700082E001C083E01092F101109213021092EE
:101F8000F00108959091E3019111FCCF613208F0C6
:101F900060E291E09093E3019093E2012FEF2093B0
:101FA000E1011092E001260F2093DF019093BE0122
:101FB0009091BE01880F892B8093BE018091BD0155
:101FC000813061F41092BD018091BE018093BB000D
:101FD0008091BC0083FDF8CF85EC01C085EE809335
:101FE000BC008091E3018130E1F38091E00186172C
:101FF00010F46091E001AFEBB1E0EDE9F1E080E0D9
:10200000861721F09D9191938F5FFACF10929C01DA
:1020100080939B01089590919A01906221E0209312
:10202000F001909312021092F10110921302682FA6
:1020300084EE91E00E94510981E00E94660F809138
:102040009A01806261E070E090E00E94C20F84EE2D
:1020500091E00E940809089510921602109217024A
:1020600080E090E02091240230912302239F900190
:102070001124821793074CF4E0912902F0912A026F
:10208000E80FF91F10820196EDCF0895CF93C62F68
:1020900090919A01906221E02093F00190931202B6
:1020A0001092F10110921302682F84EE91E00E94C9
:1020B00051096C2F84EE91E00E94510981E0CF918B
:1020C0000C94660F1F93CF93DF93C82F162FD82F32
:1020D000D770883010F085E101C084E10E940B10B8
:1020E00041E050E060E070E004C0440F551F661FFF
:1020F000771FDA95D2F7112319F0682F642B03C0EC
:102100004095642F6823C83010F083E101C082E15C
:10211000DF91CF911F910C944610CF93DF9390E005
:10212000FC01EC54F84F2491FC01E056F84F8491E7
:102130008823C1F090E0880F991FFC01EA56F84F00
:10214000C591D491FC01E457F84FA591B4919FB784
:10215000F8948881E22FE0958E2388838C91E82380
:10216000EC939FBFDF91CF910895CF93DF93C82F5A
:10217000D1E0883008F4D0E08D2F0E940B10C7709A
:1021800041E050E060E070E004C0440F551F661F5E
:10219000771FCA95D2F74095642F68238D2FDF9162
:1021A000CF910C94461010929C0110929B011092BA
:1021B000F101109213021092E30181E08093E20199
:1021C0001092BD0182E10E942D0E83E10E942D0E2E
:1021D000E9EBF0E080818E7F808380818D7F80833A
:1021E00088E48093B80085E48093BC0086EF98E093
:1021F000909399018093980187EF98E090939701CD
:102200008093960108952F923F924F925F926F9222
:102210007F928F929F92AF92BF92CF92DF92EF9276
:10222000FF920F931F93CF93DF9300D01F92CDB7F0
:10223000DEB7082F10E050912402E52FF0E0DF0117
:1022400093E0AA0FBB1F9A95E1F7A017B1070CF412
:1022500029C190912302961708F424C1E42EF12C91
:10226000FB82EA82AE15BF050CF41CC1921708F47C
:1022700019C1841351C030E0462F50E024173507B0
:10228000C1F441E00F900F900F90DF91CF911F911B
:102290000F91FF90EF90DF90CF90BF90AF909F9005
:1022A0008F907F906F905F904F903F902F900C9405
:1022B000530E2417350720F4952FA901262F392F07
:1022C000982F977060E870E002C0759567959A95B1
:1022D000E2F7A62F869586958695E49FB001E59F47
:1022E000700DF49F700D1124FB01E80FF11DCF015B
:1022F0002417350708F4D6C0E0911402F0911502B6
:10230000E80FF91F60816A2B608360912402860FB9
:10231000911D4F5F5F4FECCF62135FC09801EA8061
:10232000FB80E216F30609F4ACCFE216F30618F4CC
:1023300097011B830A83F901E770FF278FEF90E075
:10234000DC0102C0B595A795EA95E2F7FD01569F1D
:10235000B001112443E0369527954A95E1F7A9018C
:10236000460F571F2A813B812770332702C095955E
:1023700087952A95E2F78095EA80FB80F3E0F69452
:10238000E794FA95E1F7E60EF71EFB82EA824E1516
:102390005F0519F4A82FAE2380E09A012F5F3F4F0D
:1023A000E0911402F0911502E40FF51F90819A2B31
:1023B00090839FEFE0911402F09115024A815B81B6
:1023C000E20FF31F2417350720F490832F5F3F4F50
:1023D000F1CF9081892B808365C0E62EF12C4817C0
:1023E00048F4C801AA81BB818A1B9B0B9B838A830B
:1023F0008FEF07C0EA81FB81E01BF10BFB83EA83CF
:1024000081E0422E512C261730F49701241935090A
:1024100029019FEF03C04E185F0891E04A815B815C
:10242000441555054CF43A812B815B824A82432E38
:10243000522E51E0598301C01982440C551C52019F
:10244000AA81BB81AA1ABB0A1D01220C331C812C54
:10245000912C692E990F7708C82E880FDD08EA8124
:10246000FB81E815F905F4F06E2D802F0E94910C88
:10247000B7FC0AC0F981F13019F40C0D1D1D02C022
:10248000E60CF71CA218B3082981213019F4E60CD8
:10249000F71C02C00C0D1D1DA40CB51C3FEF831AC8
:1024A000930ADDCF0F900F900F90DF91CF911F9186
:1024B0000F91FF90EF90DF90CF90BF90AF909F90E3
:1024C0008F907F906F905F904F903F902F900895E6
:1024D000CF93DF93282F30E0F901E858F84F84912B
:1024E000F901EC54F84FD491F901E056F84FC4913A
:1024F000CC2391F081110E94C90AEC2FF0E0EE0F7D
:10250000FF1FE259F84FA591B491EC91ED2381E0C2
:1025100090E021F480E002C080E090E0DF91CF9174
:102520000895789484B5826084BD84B5816084BD4B
:1025300085B5826085BD85B5816085BD80916E0061
:10254000816080936E001092810080918100826092
:1025500080938100809181008160809381008091CF
:1025600080008160809380008091B10084608093BE
:10257000B1008091B00081608093B00080917A00BA
:10258000846080937A0080917A00826080937A00E0
:1025900080917A00816080937A0080917A008068CF
:1025A00080937A001092C10080E891E00E94931518
:1025B0009093150280931402009709F458C010926A
:1025C00016021092170290932A028093290288E043
:1025D0008093240280E38093230210921C021092C5
:1025E0001D0210921E0210921F0283E080932602A9
:1025F000809327022AE734E030937401209373011B
:10260000579A219A5F98299A239A92EC9093800086
:1026100099E1909381009BE2909320029FEB90932D
:1026200025028093280286E091E090932202809315
:10263000210287EF93E090938700809386008AE4DD
:1026400090E0909389008093880087E091E09093D8
:102650001B0280931A028EE198E09093720180939E
:10266000710181E080936F0078940E942C1088E6BD
:1026700090E0909319028093180288E191E00E9403
:102680005A0F8DE00E94910E8AE00E94910E20E088
:102690004EE360E080E00E9403112EE240E060E043
:1026A00080E00E9403112EE24EE360E08EE30E9480
:1026B00003112EE24EE36EE280E00E94031164EF0C
:1026C00071E080E090E00E9434040E946E04609308
:1026D0007501709376018093770190937801109241
:1026E0009A010E94D3106FEF80E00E9446106FEFB6
:1026F00081E00E9446100E94D31082E00E94B51033
:1027000084E00E94B51086E00E94B51088E00E9427
:10271000B51080E00E94B51083E00E94B51085E0FE
:102720000E94B51087E00E94B51089E00E94B510A4
:1027300081E00E94B51082E00E948D1083E00E942B
:102740008D1084E00E948D1060ED77E080E090E0D5
:102750000E94340484E090E090938401809383018C
:1027600090937A01809379010E940B0AA0E06A2E6F
:10277000A0E07A2EB4E0EB2EF12CCBE6CC2EC3E019
:10278000DC2ED8E04D2E7AEF572EECE02E2EF2E123
:102790003F2E82E00E9468128C0180918B01909103
:1027A0008C010817190751F00E946E04609387018D
:1027B000709388018093890190938A010E946E042E
:1027C0008090870190908801A0908901B0908A0143
:1027D000DC01CB0188199909AA09BB094F97A1050A
:1027E000B105F8F0809185019091860108171907CD
:1027F000C1F010938601009385010130110589F421
:1028000080918301909184018430910529F4109284
:1028100084011092830105C00196909384018093F6
:10282000830183E00E946812EC0180918101909104
:102830008201C817D90751F00E946E0460937D0190
:1028400070937E0180937F01909380010E946E04BB
:1028500080907D0190907E01A0907F01B0908001DA
:10286000DC01CB0188199909AA09BB094F97A10579
:10287000B105F0F080917B0190917C01C817D907D8
:10288000B9F0D0937C01C0937B01C130D10581F4B4
:102890008091830190918401009729F4F092840142
:1028A000E092830105C00197909384018093830196
:1028B00084E00E946812892B29F080E090E00E9459
:1028C0000B0A12C08090830190908401809179015D
:1028D00090917A018816990639F0C4010E940B0A7A
:1028E00090927A018092790110938C0100938B0170
:1028F000D0938201C09381010E946E044B015C0160
:102900008091750190917601A0917701B091780145
:10291000A5019401281B390B4A0B5B0BDA01C90195
:1029200083389640A105B10508F4B1C00E942C106F
:10293000D0921902C09218024092160282E080934F
:10294000170241E04093F00158E6509312021092B2
:10295000F1011092130260E084EE91E00E945109AF
:1029600081E00E94660F67E070E088E690E00E94D8
:10297000C20F84EE91E00E94080984EE91E00E946B
:1029800008099C01332794E0359527959A95E1F73E
:10299000C82F529EC00D112484EE91E00E940809B8
:1029A0009C01332744E0359527954A95E1F7D82FC8
:1029B000529ED00D112484EE91E00E94080984EE0D
:1029C00091E00E9408099C01332754E03595279532
:1029D0005A95E1F7082F529E000D112484EE91E0E4
:1029E0000E9408099C01332764E0359527956A9574
:1029F000E1F7182F529E100D112484EE91E00E94F1
:102A000008098D2F622D0E945F15992319F0692FF7
:102A100070E002C06CE070E0072E000C880B990B90
:102A20004AE00E94E70E83E291E00E945A0FCA300A
:102A300020F485E291E00E945A0F6C2F70E080E054
:102A400090E04AE00E94E70E409216023092170290
:102A500088E690E09093190280931802612F70E04D
:102A600080E090E04AE00E94E70E8FE20E94910E23
:102A7000602F70E080E090E04AE00E94E70E8092D4
:102A8000750190927601A0927701B092780161145D
:102A9000710409F47ECE0E94000075CEE4EEF1E0F0
:102AA0001382128288EE93E0A0E0B0E084839583E5
:102AB000A683B7838AE091E0918380830895991B70
:102AC00079E004C0991F961708F0961B881F7A9525
:102AD000C9F780950895A1E21A2EAA1BBB1BFD0120
:102AE0000DC0AA1FBB1FEE1FFF1FA217B307E407ED
:102AF000F50720F0A21BB30BE40BF50B661F771F45
:102B0000881F991F1A9469F7609570958095909524
:102B10009B01AC01BD01CF010895EE0FFF1F059091
:102B2000F491E02D09940F931F93CF93DF9382309C
:102B3000910510F482E090E0E0912D02F0912E02D8
:102B400020E030E0A0E0B0E0309719F14081518101
:102B50000281138148175907C8F08417950769F453
:102B6000109731F012960C93129713961C9327C06E
:102B700000932D0210932E0222C02115310519F069
:102B80004217530718F49A01BD01EF01DF01F80164
:102B9000DBCF21153105F9F0281B390B2430310525
:102BA00080F48A819B816115710521F0FB0193837B
:102BB000828304C090932E0280932D02FE013296F0
:102BC00044C0FE01E20FF31F81939193225031091B
:102BD000398328833AC020912B0230912C02232B79
:102BE00041F4209102013091030130932C02209393
:102BF0002B0220910001309101012115310541F492
:102C00002DB73EB74091040150910501241B350BAF
:102C1000E0912B02F0912C02E217F307A0F42E1B97
:102C20003F0B2817390778F0AC014E5F5F4F241730
:102C3000350748F04E0F5F1F50932C0240932B0234
:102C40008193919302C0E0E0F0E0CF01DF91CF915A
:102C50001F910F910895CF93DF93009709F481C0DE
:102C6000FC01329713821282A0912D02B0912E02A4
:102C7000109781F420813181820F931F20912B02C4
:102C800030912C022817390751F5F0932C02E0936C
:102C90002B0267C0ED0120E030E0CE17DF0740F4E3
:102CA0004A815B819E0141155105F1F0EA01F5CFA2
:102CB000D383C28340815181840F951FC817D907E0
:102CC00059F488819981840F951F0296918380839E
:102CD0008A819B81938382832115310529F4F093A6
:102CE0002E02E0932D023DC0E901FB83EA83499166
:102CF0005991C40FD51FEC17FD0761F480819181B4
:102D0000840F951F0296E9019983888382819381BC
:102D10009B838A83E0E0F0E012968D919C9113975B
:102D2000009719F0FD01DC01F7CF8D919C9111976F
:102D30009D012E5F3F4F820F931F20912B023091F8
:102D40002C022817390769F4309729F410922E02C3
:102D500010922D0202C013821282B0932C02A09313
:102D60002B02DF91CF91089581E090E0F8940C94CC
:062D7000B916F894FFCF34
:102D760000002F028000000000005109240981098B
:102D8600F8081C090809F9084675636B205965613E
:082D9600680A003A0030000059
:107800000C94343C0C94513C0C94513C0C94513CE1
:107810000C94513C0C94513C0C94513C0C94513CB4
:107820000C94513C0C94513C0C94513C0C94513CA4
:107830000C94513C0C94513C0C94513C0C94513C94
:107840000C94513C0C94513C0C94513C0C94513C84
:107850000C94513C0C94513C0C94513C0C94513C74
:107860000C94513C0C94513C11241FBECFEFD8E036
:10787000DEBFCDBF11E0A0E0B1E0ECE9FFE702C060
:1078800005900D92A230B107D9F712E0A2E0B1E065
:1078900001C01D92AD30B107E1F70E942D3D0C945F
:1078A000CC3F0C94003C982F959595959595959582
:1078B000905D8F708A307CF0282F295A8091C0000B
:1078C00085FFFCCF9093C6008091C00085FFFCCF60
:1078D0002093C6000895282F205DF0CF982F809127
:1078E000C00085FFFCCF9093C6000895EF92FF92F1
:1078F0000F931F93EE24FF2487018091C00087FD22
:1079000017C00894E11CF11C011D111D81E4E8164B
:1079100082E4F8068FE0080780E0180770F3E09132
:107920000401F091050109958091C00087FFE9CF1E
:107930008091C6001F910F91FF90EF9008950E94D3
:10794000763C982F8091C00085FFFCCF9093C600B5
:1079500091362CF490330CF09053892F089597555D
:10796000892F08951F930E949F3C182F0E949F3CCF
:107970001295107F810F1F9108951F93182F882350
:1079800021F00E94763C1150E1F71F9108951F935A
:10799000182F0E94763C803249F0809103018F5F5E
:1079A000809303018530C1F01F9108958091C0003C
:1079B00085FFFCCF84E18093C6008091C00085FFE5
:1079C000FCCF1093C6008091C00085FFFCCF80E102
:1079D0008093C6001F910895E0910401F091050184
:1079E00009951F9108950E94763C803241F0809164
:1079F00003018F5F80930301853081F008958091AA
:107A0000C00085FFFCCF84E18093C6008091C00058
:107A100085FFFCCF80E18093C6000895E0910401CA
:107A2000F09105010995089540E951E08823A1F0FE
:107A30002D9A28EE33E0FA013197F1F721503040CA
:107A4000D1F72D9828EE33E0FA013197F1F7215064
:107A50003040D1F7815061F708953F924F925F9285
:107A60006F927F928F929F92AF92BF92CF92DF924E
:107A7000EF92FF920F931F93CF93DF93000080E16B
:107A80008093C4001092C50088E18093C10086E015
:107A90008093C2005098589A259A81E00E94143D24
:107AA00024E1F22E9EE1E92E85E9D82E0FE0C02ECA
:107AB00010E1B12EAA24A394B1E49B2EA6E58A2E50
:107AC000F2E57F2EE0E26E2E79E4572E63E5462E36
:107AD00050E5352E0E94763C8033B1F18133B9F107
:107AE000803409F46FC0813409F476C0823409F41B
:107AF00085C0853409F488C0803531F1823521F1A3
:107B0000813511F1853509F485C0863509F48DC0BC
:107B1000843609F496C0843709F403C1853709F423
:107B200072C1863709F466C0809103018F5F80932C
:107B30000301853079F6E0910401F0910501099582
:107B40000E94763C803351F60E94F33CC3CF0E94E2
:107B5000763C803249F78091C00085FFFCCFF092DF
:107B6000C6008091C00085FFFCCF9092C600809136
:107B7000C00085FFFCCF8092C6008091C00085FFC9
:107B8000FCCF7092C6008091C00085FFFCCF609250
:107B9000C6008091C00085FFFCCF5092C600809146
:107BA000C00085FFFCCF4092C6008091C00085FFD9
:107BB000FCCF3092C6008091C00085FFFCCFB09210
:107BC000C60088CF0E94763C863808F4BDCF0E945C
:107BD000763C0E94F33C7ECF0E94763C803809F4CC
:107BE0009CC0813809F40BC1823809F43CC1883942
:107BF00009F48FC080E00E94C73C6CCF84E10E94F2
:107C0000BD3C0E94F33C66CF85E00E94BD3C0E94D3
:107C1000F33C60CF0E94763C809306010E94763C44
:107C2000809307010E94F33C55CF0E94763C80333D
:107C300009F41DC183E00E94BD3C80E00E94C73C66
:107C400049CF0E94763C809309020E94763C809343
:107C5000080280910C028E7F80930C020E94763C79
:107C6000853409F415C18091080290910902892B8D
:107C700089F000E010E00E94763CF801E85FFE4FDA
:107C800080830F5F1F4F80910802909109020817AF
:107C9000190788F30E94763C803209F045CF809125
:107CA0000C0280FF01C16091060170910701660F0F
:107CB000771F7093070160930601A0910802B091AD
:107CC00009021097C9F0E8E0F1E09B01AD014E0F09
:107CD0005F1FF999FECF32BD21BD819180BDFA9A17
:107CE000F99A2F5F3F4FE417F50799F76A0F7B1F4B
:107CF00070930701609306018091C00085FFFCCF5F
:107D0000F092C6008091C00085FFFCCFB092C60003
:107D1000E1CE83E00E94C73CDDCE82E00E94C73CFA
:107D2000D9CE0E94763C809309020E94763C8093D3
:107D300008028091060190910701880F991F909386
:107D40000701809306010E94763C853409F4A6C0A1
:107D500080910C028E7F80930C020E94763C8032D0
:107D600009F0B8CE8091C00085FFFCCFF092C6002C
:107D7000609108027091090261157105B9F140E046
:107D800050E080910C02A82FA170B82FB27011C0E2
:107D9000BB2309F45CC0E0910601F0910701319624
:107DA000F0930701E09306014F5F5F4F46175707B7
:107DB000E8F4AA2369F3F999FECF209106013091E6
:107DC000070132BD21BDF89A90B58091C00085FFB2
:107DD000FCCF9093C6002F5F3F4F30930701209355
:107DE00006014F5F5F4F4617570718F38091C00099
:107DF00085FDE5CE8091C00085FFF8CFE0CE81E023
:107E00000E94C73C67CE0E94763C803209F08CCE3F
:107E10008091C00085FFFCCFF092C6008091C00029
:107E200085FFFCCFE092C6008091C00085FFFCCFAB
:107E3000D092C6008091C00085FFFCCFC092C600E2
:107E40008091C00085FFFCCFB092C60043CEE09188
:107E50000601F091070194918091C00085FFFCCF4D
:107E60009093C6009CCF80E10E94C73C33CE0E9415
:107E7000763C0E94763C182F0E94763C112309F430
:107E800083C0113009F484C08FE00E94C73C22CE29
:107E900080910C02816080930C02E5CE80910C02EF
:107EA000816080930C0259CF809107018823880F4D
:107EB000880B8A2180930B02809106019091070123
:107EC000880F991F90930701809306018091080203
:107ED00080FF09C080910802909109020196909359
:107EE000090280930802F894F999FECF1127E091D6
:107EF0000601F0910701C8E0D1E08091080290915D
:107F00000902103091F40091570001700130D9F34B
:107F100003E000935700E89500915700017001308D
:107F2000D9F301E100935700E89509901990009169
:107F3000570001700130D9F301E000935700E89534
:107F40001395103498F011270091570001700130FB
:107F5000D9F305E000935700E895009157000170B0
:107F60000130D9F301E100935700E895329602976A
:107F700009F0C7CF103011F00296E5CF112480919F
:107F8000C00085FFB9CEBCCE8EE10E94C73CA2CD19
:0C7F900085E90E94C73C9ECDF894FFCF0D
:027F9C00800063
:040000030000780081
:00000001FF
